:100000000C94C0010C94DD010C94DD010C94DD0115
:100010000C94DD010C94DD010C94DD010C94DD01E8
:100020000C94DD010C94DD010C94DD010C94DD01D8
:100030000C94DD010C94DD010C94DD010C94DD01C8
:100040000C94DD010C94DD010C94DD010C94DD01B8
:100050000C9489020C94DD010C94DD010C94DD01FB
:100060000C94DD010C94DD010C94DD010C94DD0198
:100070000C94DD010C94DD010C94DD015E094F0749
:100080004F074F074F074F074F074F074F074F07C0
:100090004F074F074F074F074F074F074F074F07B0
:1000A0004F074F074F074F074F074F074F074F07A0
:1000B0004F074F074F074F074F074F074F074F0790
:1000C0004F074F074F074F074F074F074F074F0780
:1000D0004F074F074F074F074F074F074F074F0770
:1000E0004F07FD084F074F074F074F074F074F07B1
:1000F0004F074F074F07FD08C808FD084F074F0778
:100100004F074F07FD084F074F074F074F074F0790
:10011000FD0895084F074F07D0074F07FD084F0709
:100120004F07FD082573000A00253032780041553D
:10013000444954204C4F472052455345540A0048E7
:10014000414C542120454550524F4D20636F7272EF
:10015000757074696F6E206465746563746564217D
:100160000048414C542120454550524F4D20636F6B
:100170007272757074696F6E2064657465637465FE
:10018000642100556E6B6E6F776E20636F6D6D61CD
:100190006E643A20222573220A0061756469745FD7
:1001A0006C6F6700656E637279707420666C61674E
:1001B0000A00656E63727970745F666C6167004DEA
:1001C000697373696E6720706172616D65746572C1
:1001D0003A2065726173652076616C75650A0073FB
:1001E00065637572652065726173650A0073656386
:1001F0007572655F6572617365004D697373696ED1
:100200006720706172616D657465723A20757365FF
:100210007220646174610A00777269746520757375
:10022000657220646174610A0077726974655F6445
:10023000617461002000200048414C542120454554
:1002400050524F4D20636F7272757074696F6E20DB
:100250006465746563746564210057656C636F6DD4
:100260006520746F20466C61675361666520763245
:100270002E330A008D01020408102040801B3663D3
:100280007C777BF26B6FC53001672BFED7AB76CAEC
:1002900082C97DFA5947F0ADD4A2AF9CA472C0B711
:1002A000FD9326363FF7CC34A5E5F171D83115041E
:1002B000C723C31896059A071280E2EB27B2750987
:1002C000832C1A1B6E5AA0523BD6B329E32F8453BA
:1002D000D100ED20FCB15B6ACBBE394A4C58CFD07F
:1002E000EFAAFB434D338545F9027F503C9FA8514F
:1002F000A3408F929D38F5BCB6DA2110FFF3D2CD22
:100300000C13EC5F974417C4A77E3D645D197360BE
:10031000814FDC222A908846EEB814DE5E0BDBE0CB
:10032000323A0A4906245CC2D3AC629195E479E77B
:10033000C8376D8DD54EA96C56F4EA657AAE08BA09
:1003400078252E1CA6B4C6E8DD741F4BBD8B8A70C1
:100350003EB5664803F60E613557B986C11D9EE16C
:10036000F8981169D98E949B1E87E9CE5528DF8CA9
:10037000A1890DBFE6426841992D0FB054BB16000C
:1003800011241FBECFEFD4E0DEBFCDBF12E0A0E04E
:10039000B1E0EEE6FAE102C005900D92A438B10793
:1003A000D9F723E0A4E8B2E001C01D92A638B20755
:1003B000E1F70E9458020C94350D0C940000EF9266
:1003C000FF920F931F93CF93DF9300E010E080E93B
:1003D000E82E80E0F82ECFEFDFEFC8010E94F20C8C
:1003E0009E012827822F82958227082E8695869542
:1003F0008025082E869580258770022E232F8695CE
:1004000007948795302D282706948795302528272F
:10041000E9010F5F1F4FE016F106F9F6C901DF9100
:10042000CF911F910F91FF90EF900895CF93DF939D
:10043000F8940E94DF01EC0180E990E00E94FA0C40
:100440009C01789481E0C217D30709F080E0DF9126
:10045000CF910895F89440E450E060E570E00E9488
:10046000000D0E94DF01BC0180E990E00E94220D96
:1004700078940895CF93DF93EC010E94A30CE2E0FF
:10048000F2E001900020E9F78E0F9F1F825092400A
:100490008138910530F06EE271E082E092E00E94D6
:1004A0009C0CBE0182E092E0DF91CF910C94880C0D
:1004B00084B7813021F080E090E00E94350D84BF48
:1004C0009FE09093C8002CE030E03093CE00209362
:1004D000CD008093CA000E94DF01BC0180E990E05A
:1004E0000E94220D78948AE592E09F938F930E9458
:1004F000D10A0F900F900E9416028111FCCF88E361
:1005000092E09F938F930E94D10A80E090E00E9436
:10051000350D1F920F920FB60F921124AF92BF921A
:10052000CF92DF92EF92FF920F931F932F933F93FF
:100530004F935F936F937F938F939F93AF93BF93EB
:10054000EF93FF93CF93DF93CDB7DEB7C054D109BC
:10055000DEBFCDBF8091C90080FF0EC08091D20068
:10056000E09101028A3051F191E09E0F90930102D7
:10057000F0E0EF5FFE4F8083C05CDF4F0FB6F89472
:10058000DEBF0FBECDBFDF91CF91FF91EF91BF9145
:10059000AF919F918F917F916F915F914F913F911B
:1005A0002F911F910F91FF90EF90DF90CF90BF9010
:1005B000AF900F900FBE0F901F90189581E08E0F97
:1005C00080930102F0E0EF5FFE4F10828091000106
:1005D00090E066E372E08F5F9E4F0E94830C8C0177
:1005E00064E372E080E090E00E94830C7C01D8011B
:1005F0008C918823C1F1809101028093000169E20E
:1006000072E0C8010E94930C892BB1F16DEE71E08C
:10061000C8010E94930C892BD1F5E114F10409F46F
:10062000F7C08FED91E00E943A02C7010E94650C6D
:10063000BC01772740E450E0CE0101960E94D30C24
:1006400007E010E00E941602882309F4F8C0CE01EA
:1006500001960E942A020E941602882309F4E5C02E
:100660000150110979F78EE38093010181E08093B5
:1006700001028093000180CFE114F10491F188E13F
:1006800092E00E943A02C7010E942A02ECCF62EB7C
:1006900071E0C8010E94930C892B61F16AE971E055
:1006A000C8010E94930C892B79F482E092E09F9319
:1006B0008F9384E291E09F938F930E94D10A0F90D1
:1006C0000F900F900F90CFCF1F930F9383E891E07F
:1006D0009F938F930E94D10A0F900F900F900F90CD
:1006E000C2CF8AEF91E09F938F930E94D10A0F901F
:1006F0000F90B9CF84EA91E00E943A0240918202C1
:10070000413108F08EC080918302813408F089C0A5
:1007100050E060E470E086E793E00E94E20C66E758
:1007200073E086EC92E00E94EC0A4091830250E074
:1007300060E070E086E892E00E94E20C8091830223
:10074000E82EF12CBFE0EB0EF11CF594E794F59444
:10075000E794F594E794F594E79446E8C42E42E0D4
:10076000D42EE114F104C1F08601C701829592955F
:10077000907F9827807F9827FC01EA57FD4F7F01E3
:10078000B80186EC92E00E94560B005F1F4F0E15D9
:100790001F05B1F7809183028823F1F086E8E82EE7
:1007A00082E0F82EA12CB12C09E211E0D7018D9145
:1007B0007D011F928F931F930F930E94D10ABFEF69
:1007C000AB1ABB0A8091830290E00F900F900F90BC
:1007D0000F90A816B90650F387E291E09F938F938C
:1007E0000E94D10A80EBE6ECF2E0DF011D928A95CF
:1007F000E9F780E1E6E7F3E0DF011D928A95E9F78A
:1008000080E4F60111928A95E9F70F900F902BCFB3
:100810008FEB91E09F938F930E94D10A0F900F90DE
:1008200022CF80E090E00E94350D8FE391E09F930E
:100830008F930E94D10A80E090E00E94350D81E6FE
:1008400091E0F5CF8093D2008091C90081FFFCCF69
:10085000089508952F923F924F925F926F927F92E8
:100860008F929F92AF92BF92CF92DF92EF92FF92C0
:100870000F931F93CF93DF93CDB7DEB7AB970FB630
:10088000F894DEBF0FBECDBF98A78FA33B015EA338
:100890004DA31901C9A626968EAD9FAD26979C0142
:1008A000E114F10401051105D1F52F7E3AA329A326
:1008B000FC01EE27F470FBA7EAA792FD9FC1F9A106
:1008C000F5FF36C081E49E012F5F3F4F6901412C47
:1008D000512C8A507CA26BA2782E14C0605DF60168
:1008E00061936F01C801B701A50194010E943D0CFD
:1008F00079018A01232B242B252BE1F0F0E24F16FE
:100900005104C1F0C801B701A50194010E943D0C3A
:100910003FEF431A530A6A300CF3670DE0CF2227EA
:1009200034703BA72AA79AA389A3F9A1F5FDCACFE2
:1009300081E6C9CF6BA07CA029A13AA12270332700
:100940003CA32BA339A131FD7EC024968EAD9FAD73
:100950002497892B01F129A13AA12170332799A16C
:1009600090FF4FC1E9A5E1117EC189A19AA18C70C8
:100970009927892B09F077C12296EEADFFAD22971A
:100980004E165F0690F590E24916510409F476C1BF
:1009900021E030E011C022968EAD9FAD229748161F
:1009A000590608F050C029A13AA12170332790E2DE
:1009B0004916510409F447C0E1E0F0E0EC0FFD1FD7
:1009C000E40DF51D80E322964EAD5FAD229704C085
:1009D00090E24916510439F09FEF491A590A819360
:1009E00044165506A8F3232B71F12496EEADFFAD06
:1009F00024974E165F0638F5F0E24F16510408F0C2
:100A000044C1C2010196E1E0F0E0EC0FFD1FE40DEE
:100A1000F51D20E32083E1E0F0E0EC0FFD1FE80F7F
:100A2000F91F24964EAD5FAD249706C08032910524
:100A300009F42BC10196219348175907B9F7249659
:100A40004EAC5FAC2497E9A1E4FF1FC02AA53BA5EB
:100A5000232B21F44114510409F0E9C030E183163D
:100A6000910409F426C132E08316910409F432C1DD
:100A7000F0E24F165104F0F4FE01E40DF51D80E3A1
:100A8000818392012F5F3F4F290130E243165104C9
:100A900088F489A58111A9C0F9A1F2FDFDC039A191
:100AA00033FF6DC0FE01E40DF51D80E28183C201BC
:100AB00001962C0189A19AA183709927892B09F4A9
:100AC00065C00DA11EA1CC24C394D12CCC0EDD1E7B
:100AD000C40CD51C7201A8018FA098A45A013FEF45
:100AE000A31AB30A81E0E81AF1089101B301F601F3
:100AF00082916F01F4010995A501E114F10471F7E8
:100B0000040D151D2BA13CA1232BF9F0C801EDA16B
:100B1000FEA18E1B9F0B24962EAD3FAD249782170E
:100B2000930798F4A801EFA0F8A46F0159010F5F93
:100B30001F4F9101B30180E2F7010995A801C80197
:100B40008C199D098A159B0590F3C801AB960FB6C9
:100B5000F894DEBF0FBECDBFDF91CF911F910F91F3
:100B6000FF90EF90DF90CF90BF90AF909F908F90CD
:100B70007F906F905F904F903F902F90089589A144
:100B80009AA183709927892B09F06AC02496EEAD4B
:100B9000FFAD24974E165F0608F062C082014DA19A
:100BA0005EA1EFA0F8A42496AEACBFAC24976A0176
:100BB000FFEFCF1ADF0A9101B30180E2F701099537
:100BC0000F5F1F4FA6010A151B0588F30DA11EA17B
:100BD00024962EAD3FAD2497020F131F041915095B
:100BE0004114510409F06FCF8DCFFE01E40DF51DC6
:100BF0008DE28183F20131962F015CCF412C512C83
:100C00009BCE22968EAD9FAD22974816590608F0CE
:100C10001ACF80E24816510409F0CECE14CF2AA58F
:100C20003BA580E2482E512C232B09F017CF2296AA
:100C30008EAD9FAD22978415950541F02496EEADBB
:100C4000FFAD24974E165F0609F008CFC201019749
:100C500009F45DC0F0E18F16910441F12C0103CF3E
:100C60000DA11EA1BDCF24962EAD3FAD24972150DE
:100C7000310924963FAF2EAF24977ECE2496EEAD59
:100C8000FFAD2497B19708F4DECEF9A1F4FDC7CFEC
:100C900090E2492E512C0ECFFE01E40DF51D8BE2A2
:100CA000818392012F5F3F4F290104CF22E0421A36
:100CB000510889A185FD1CC090E24916510408F035
:100CC000F9CEFE01E40DF51D88E78183F20131962E
:100CD0002F01CECE80E24816510408F0EBCEFE0183
:100CE000E40DF51D82E68183F20131962F01C0CE1D
:100CF00020E24216510408F0DDCEFE01E40DF51DA0
:100D000088E5818392012F5F3F4F2901B1CE412CAD
:100D1000512CA4CE2F923F924F925F926F927F926E
:100D20008F929F92AF92BF92CF92DF92EF92FF92FB
:100D30000F931F93CF93DF93CDB7DEB760970FB6B6
:100D4000F894DEBF0FBECDBF9A8389832B013A0191
:100D500038872F831C830B83672B09F4EBC3212C6B
:100D6000312CCF80D884DE86CD86ED85FE858491BA
:100D70008823E1F0ED85FE858491853209F43DC03C
:100D800081010F5F1F4F84919301A101B201E9819D
:100D9000FA8109952D853E852F5F3F4F3E872D8730
:100DA0001801ED85FE8584918111E4CF2614370466
:100DB00008F428C3A301415051099301B20180E016
:100DC000E981FA810995C10160960FB6F894DEBFFA
:100DD0000FBECDBFDF91CF911F910F91FF90EF908C
:100DE000DF90CF90BF90AF909F908F907F906F904B
:100DF0005F904F903F902F9008958D859E8501962E
:100E000040E050E0988B8F87FC0124912B3281F0D9
:100E100040F4203209F456C0233281F44061019637
:100E2000F1CF2D3241F0203349F441600196EACFF1
:100E300044600196E7CF42600196E4CFFC01249123
:100E400020532A3008F441C0FC0124912A3209F4CD
:100E500060C200E010E0FC0124912E3209F45FC072
:100E6000A12CB12CFC0124912A3609F48EC02B361A
:100E700008F42CC22C3609F438C22A3739F45260EF
:100E8000EF85F8893196F88BEF87CF01FC01C4908C
:100E9000D12CF601B597E435F10508F47DC0810148
:100EA0000F5F1F4FFC0184919301A101B201E98101
:100EB000FA8109952F8538892F5F3F4F3E872D870F
:100EC000180153CF486001969DCF249120532A30BA
:100ED00008F0BFCF00E010E02F8538892F5F3F4F2B
:100EE000388B2F87FC0184919801220F331F000F4C
:100EF000111F000F111F000F111F020F131F0053AE
:100F00001109080F111D8F859889FC012491205328
:100F10002A3010F3FC0124912E3209F0A1CF546045
:100F2000EF85F8893196949190539A3008F0E9C191
:100F3000849180538A3008F0E8C1A12CB12CF88B41
:100F4000EF87EF85F8899F012F5F3F4F388B2F8701
:100F5000E491C501880F991FAA0CBB1CAA0CBB1CED
:100F6000AA0CBB1CA80EB91E30E3A31AB108AE0E22
:100F7000B11CEF85F889849180538A3010F3CF013A
:100F8000FC0124912A3609F072CF52608F8598892E
:100F90000196988B8F877ACFE25CFF4F0C945F0CA1
:100FA0006B817C816E5F7F4F7C876B87EB81FC81DF
:100FB0000190F081E02DF887EF83A114B10409F0CE
:100FC000E7C19FEF6FEFEF81F8858081882309F4F7
:100FD000C8C2EF81F8853196292F362F04C02150E1
:100FE000310939F0FB01BF016F5F7F4F9081911193
:100FF000F6CF6F01EF80F884CE18DF08DC82CB8259
:101000004A01882424E0922252FF07C0CB80DC8072
:10101000AC14BD0410F4BC82AB829A012270332759
:101020003E872D8741FDC2C12B813C812F5F3F4F01
:10103000CB80DC80C016D10608F0A4C2A101C21882
:10104000D3087A012FEFE21AF20A9301B20180E28B
:10105000E981FA810995A701C7018C0D9D1D8017B3
:10106000910778F3200E311ECB80DC802C183D08D0
:10107000EF81F885808198012F5F3F4F3C832B8360
:10108000882309F447C0CF80D884FFEFCF1ADF0A46
:1010900001C017018114910439F0950121503109E3
:1010A000AB2809F4B1C1590171013FEFE31AF30A0A
:1010B0009301A101B201E981FA810995F6018191BB
:1010C0006F018111E6CFCD84DE84CD2809F46CC197
:1010D000CB80DC80C016D10608F066C1A701CE180F
:1010E000DF08A980BA804A012FEF821A920A930181
:1010F000B20180E2F5010995A401C601880D991D90
:101100008017910780F30E0D1F1D1801CB80DC8026
:101110002C183D082F8538892F5F3F4F3E872D873C
:10112000CB84DC84DC82CB8220CE2B813C812E5F81
:101130003F4F38872F83EB81FC81E080F18000E016
:1011400010E041625F934F931F92F4E0FF93BF92D0
:10115000AF9280E1882E912CA12CB12CC12C93014F
:10116000A101B20189819A810E942A041C012F8564
:1011700038892F5F3F4F3E872D870F900F900F903C
:101180000F900F900F904F8158855C834B83EDCD6E
:1011900041FDD2C00230110508F4F2C1C10101972E
:1011A000080F191FC980DA8071013FEFE31AF30AB3
:1011B0009301A101B20180E2F601099517010E1514
:1011C0001F0591F71801FFEF2F1A3F0AEB80FC80F3
:1011D00022E0E20EF11C9301A801B201EB81FC8137
:1011E0008081E981FA810995FC82EB822F8538891B
:1011F0002F5F3F4F3E872D87B8CDFC0124912837C4
:1012000009F4C9C02491283509F4C5C024912F36AA
:1012100009F495C12491223609F494C14F7E6AE005
:1012200070E0FC012491283509F4BCC0FC01249134
:10123000293621F02491243609F0437F52FD4E7F58
:10124000FC012491293609F4B5C08491843609F44F
:10125000B1C051FDCBCF50FDEBC0EB81FC8146FF0F
:1012600074C1E080F180970133273296FC83EB83D1
:10127000CB01A0E0B0E06901E12CF12CCF82D8864F
:10128000E986FA865F934F931F930F93BF92AF92B5
:101290004C015D01C12CEF80F88409851A8593010A
:1012A000A101B20189819A810E942A041C010F9038
:1012B0000F900F900F900F900F9098CF81010F5FBC
:1012C0001F4F9301A101B20185E2F1CD283609F04B
:1012D000DDCDEF85F88931962491283609F49FC039
:1012E0004068CF01F88BEF87D1CDEF85F889319633
:1012F00024912C3609F48AC05160CF01F88BEF8716
:10130000C5CD84918A3209F4FCC0CF01F88BEF87F8
:10131000A7CD2B813C812E5F3F4FEB81FC8100816B
:10132000118117FD02C1BC016F5F7F4F788B6F8702
:10133000CB013C832B838FCD7101FFEFEF1AFF0AA6
:10134000CB80DC8022E0C20ED11C9301A101B2014E
:10135000EB81FC818081E981FA81099502301105D8
:1013600008F40AC1020D131D89809A805701FFEF0E
:10137000AF1ABF0A9301A701B20180E2F4010995F7
:101380007501A016B10691F71501DC82CB822ECF34
:101390009A2D6B2D18CE60E170E0FC012491283568
:1013A00009F044CF406242CF1701B4CE81116BCE19
:1013B00071018ECE51FD1ACF50FD67C0EB81FC81CB
:1013C00046FFC9C08081082E000C990B3296FC8321
:1013D000EB836B01E12CF12C292F221F2227221FE6
:1013E00097FDD6C0092E000CAA0BBB0B5F934F9341
:1013F0001F930F93BF92AF9246015701C22E7C01FB
:101400008D014DCFA101D9CC71015DCE53602F85E7
:1014100038892E5F3F4F388B2F87C90137CD406CFD
:101420006F8578896E5F7F4F788B6F87CB012ECD6C
:101430002B813C812C5F3F4F38872F836B01E12C40
:10144000F12CEB81FC8180819181A281B3815F933A
:101450004F931F930F93BF92AF9246015701C12C38
:101460007C018D019301A101B20189819A810E94C1
:101470002A041C010F900F900F900F900F900F9067
:10148000CF80D884DC82CB82B1CE2B813C812C5F93
:101490003F4F38872F83EB81FC8180819181A2812E
:1014A000B3816B01E12CF12CCB82DC82ED82FE82D8
:1014B0006C017D01CC24F7FCC394DD24EE24FF24D1
:1014C000B7FD52C05F934F931F930F93BF92AF929C
:1014D0008B809C80AD80BE807C018D019301A10139
:1014E000B20189819A810E942A041C010F900F90F9
:1014F0000F900F900F900F90EF80F884FC82EB829A
:1015000075CE2B813C812E5F3F4FEB81FC81A0800B
:10151000B180B7FC3AC06F8578896E5F7F4F788B5A
:101520006F87CB013C832B839DCC42601195019545
:101530001109F9CE29E234E03A83298310CC68E01E
:1015400070E06FCE62E070E06CCE20813181329627
:10155000FC83EB838DCE808191813296FC83EB837B
:1015600038CF1C821B824CCDB095A095909581956B
:101570009F4FAF4FBF4FA6CFDC82CB82170136CE35
:10158000810120CE3C832B837BCDA12CB12CC3CFFA
:1015900091958195910926CF811101C008950C94F0
:1015A00022040F931F93CF93DF931F92CDB7DEB723
:1015B000FE013896219131918F014FEF5FEFBE010F
:1015C0006F5F7F4F8CEC9AE00E948A060F90DF914C
:1015D000CF911F910F910895CF93DF93EB01DC0121
:1015E0009C01205F3F4FFC0188818083898181833A
:1015F0008A8182838B81838324963496E217F30752
:1016000099F724E030E01C968C911C971D969C91D4
:101610001D971E965C911E971F964C911F97B901BE
:1016200063707727672BF1F4E92FF0E0E158FD4F65
:101630006491E52FF0E0E158FD4F9491E42FF0E044
:10164000E158FD4F5491E82FF0E0E158FD4F4491EF
:10165000F901F695E795F695E795EC58FD4FE4917D
:10166000862F8E27EC91E8275096EC935097119691
:10167000EC911197E9275196EC9351971296EC91C2
:101680001297E5275296EC9352971396EC91139785
:10169000E4275396EC9353972F5F3F4F14962C32C9
:1016A000310509F0B0CFDF91CF9108957F928F92ED
:1016B0009F92AF92BF92CF92DF92EF92FF920F93E1
:1016C0001F93CF93DF934C01EB01FC018C01005F72
:1016D0001F4FAB019F012C5F3F4FDA0181919C911D
:1016E00089278D932E173F07C9F74C5F5F4FF9018C
:1016F0000217130779F7A4014C5E5F4F84010C5564
:101700001F4F9E012C5F3F4FCE014096EBE1BE2E56
:101710007E016701E0E1CE0ED11CD701EC91F0E033
:10172000E158FD4FE491EC931496AC15BD05B1F76B
:10173000EFEFEE1AFE0A2E153F0559F7E981FD80FD
:10174000F982F985FD83FD85F987ED87EA81EA84D1
:10175000EA82EA87EE81FE85FE83EE87EB81AF8524
:10176000AB83FB85FF87FF81FB87EF834017510722
:1017700009F45EC0FE01B081FB26AE25AF25EF2C3B
:10178000EE1CEE24EE1CEB9CE02C1124FF0CFE243E
:10179000EB2EEA26FE24F082F180E280DF2CDE24AC
:1017A000CD2CCC1CCC24CC1CCB9CC02C1124DD0C0F
:1017B000DC24FA26FD24F182F380DE2CDF24CD2CFC
:1017C000CC1CCC24CC1CCB9CC02C1124DD0CDC24E8
:1017D000EA26ED24E282BF25EB2EEE1CEE24EE1C61
:1017E000EB9CE02C1124BB0FBE25AF25BA27B38399
:1017F00034968E179F0721F0F180E280A381BBCF42
:101800007A016E01D7011497F601AD907080A7247C
:10181000A192EA16FB06C9F7E4E0CE0ED11CE4E083
:10182000EE0EF11CC816D90669F7405F5F4F70CF06
:10183000F401E056FF4F80EB880E911CAF014C5F26
:101840005F4FDB0191912C9192279D934E175F077B
:10185000C9F76C5F7F4FFA014815590579F7DF9199
:10186000CF911F910F91FF90EF90DF90CF90BF909D
:10187000AF909F908F907F900895A1E21A2EAA1B9F
:10188000BB1BFD010DC0AA1FBB1FEE1FFF1FA21730
:10189000B307E407F50720F0A21BB30BE40BF50B2D
:1018A000661F771F881F991F1A9469F760957095B6
:1018B000809590959B01AC01BD01CF010895EE0F7D
:1018C000FF1F0590F491E02D0994FC0188279927CA
:1018D000E89421912032E9F3293010F02E30C8F33A
:1018E0002B3241F02D3239F4689404C00E94DA0C96
:1018F000820F911D219120532A30C0F31EF4909540
:1019000081959F4F089544E852E00E94AC0C0895E1
:10191000FB01DC010D900020E9F7119705900D9275
:101920000020E1F70895FB01DC018D9105908019FD
:101930000110D9F3990B0895FB01DC0105900D927C
:101940000020E1F70895FC0105900020E9F780955B
:1019500090958E0F9F1F0895FA01A191B081009775
:1019600019F41097E1F0CD01DC01CD010D900020BC
:1019700011F4C00113C0FB012591222319F0201599
:10198000D9F7F3CFFB012591201519F41E9211967A
:1019900006C02223C1F70D900020A1F7D001FA0163
:1019A000A193B0830895DC0101C06D934150504074
:1019B000E0F708957AE0979F902D879F802D910DF5
:1019C00011240895DC01CB01FC01F999FECF06C07A
:1019D000F2BDE1BDF89A319600B40D9241505040ED
:1019E000B8F70895F999FECF92BD81BDF89A99276D
:1019F00080B50895A8E1B0E042E050E00C94E40C1A
:101A0000DC01A40FB51F4150504048F0CB01840FBA
:101A1000951F2E910E94110D41505040D0F708950E
:101A2000262FF999FECF92BD81BDF89A019700B497
:101A3000021639F01FBA20BD0FB6F894FA9AF99A37
:101A40000FBE08950E94270D272F0C94280D262FD6
:101A5000F999FECF1FBA92BD81BD20BD0FB6F89493
:0E1A6000FA9AF99A0FBE01960895F894FFCFF6
:101A6E00013E000000000000000000000000000029
:101A7E000000000000000000000000000000000058
:101A8E000000000000000000000000000000000048
:101A9E000000000000000000000000000000000038
:101AAE000000000000000000000000000000000028
:101ABE000000000000000000000000000000000018
:101ACE000000000000000000000000000000000008
:101ADE0000000000000000000000000000000000F8
:101AEE0000000000000000000000000000000000E8
:101AFE0000000000000000000000000000000000D8
:101B0E0000000000000000000000000000000000C7
:101B1E0000000000000000000000000000000000B7
:101B2E0000000000000000000000000000000000A7
:101B3E000000000000000000000000000000000097
:101B4E000000000000000000000000000000000087
:101B5E000000000000000000000000000000000077
:101B6E0000014155444954204C4F47205354415293
:101B7E00540A0000000000000000000000000000F9
:101B8E000000000000000000000000000000000047
:101B9E000000000000000000000000000000000037
:101BAE000000000000000000000000000000000027
:101BBE000000000000000000000000000000000017
:101BCE000000000000000000000000000000000007
:101BDE0000000000000000000000000000000000F7
:041BEE0000001040A3
:00000001FF
